:04000000A4EF3FF03A
:107F48000001C1EF3FF001500210D8B41200000E3A
:107F5800056E000E046E0AD0100E036E940EE82E05
:107F6800FED7032EFCD700D0044A052A0150045C32
:107F780002500558D8B01200EFD7700E956E11D088
:107F88008380839283948386270E026E100E016E7F
:107F9800A7EC3FF08396070E026ED00E016EA7EC99
:107FA8003FF083A812D0ECD78380838283948386A2
:107FB800270E026E100E016EA7EC3FF083960F0E8F
:107FC800026EA00E016EA7EC3FF083AA12D0ECD788
:107FD8008380838283848386270E026E100E016E4F
:107FE800A7EC3FF08396170E026E700E016EA7EC99
:087FF8003FF083ACD6D7ECD7B3
:020000040020DA
:08000000FFFFFFFFFFFFFFFF00
:020000040030CA
:0E00000000051F1FFF8385FF0FC00FE00F409C
:00000001FF
